:100000003BC05FC05EC05DC05CC05BC05AC059C031
:1000100058C068C256C034C20EC253C052C051C08C
:1000200050C04FC04EC00000000037003400310007
:100030000000000038003500320004040404040409
:100040000404020202020202030303030303010287
:100050000408102040800102040810200102040856
:100060001020000000000000000000030406000053
:100070000000000000003C0311241FBECFE5D4E0C7
:10008000DEBFCDBF10E0A0E6B0E0E6EEF6E002C0D5
:1000900005900D92A039B107D9F721E0A0E9B0E0B1
:1000A00001C01D92A633B207E1F710E0CCE3D0E027
:1000B00003C02197FE010BD3CB33D107D1F75CD21C
:1000C00010C39ECFE8E6F0E02491E4E5F0E09491DF
:1000D000E0E4F0E0E491EE2331F1222381F02430DA
:1000E00039F0263049F0233051F42FB52F7702C074
:1000F0002FB52F7D2FBD03C025B52F7D25BDF0E089
:10010000EE0FFF1FE05DFF4FA591B4912FB7F8945C
:10011000811105C08C91E92FE095E82302C0EC9194
:10012000E92BEC932FBF0895CF92DF92EF92FF92CD
:100130000F931F93CF93DF936C017A018B01C0E083
:10014000D0E0CE15DF0589F0D8016D918D01D60183
:10015000ED91FC910190F081E02DC6010995892B6C
:1001600011F47E0102C02196ECCFC701DF91CF913F
:100170001F910F91FF90EF90DF90CF900895089519
:1001800080E090E00895FC01538D448D252F30E0F0
:10019000842F90E0821B930B541710F0CF96089594
:1001A00001970895FC01918D828D981761F0828DE1
:1001B000DF01A80FB11D5D968C91928D9F5F9F739B
:1001C000928F90E008958FEF9FEF0895FC01918D3D
:1001D000828D981731F0828DE80FF11D858D90E0AA
:1001E00008958FEF9FEF0895FC01918D228D892F47
:1001F00090E0805C9F4F821B91098F73992708952F
:1002000089E990E0F1DF21E0892B09F420E0822FD9
:100210000895FC01848DDF01A80FB11DA35ABF4FC3
:100220002C91848D90E001968F739927848FA689F5
:10023000B7892C93A089B1898C9182748C93938D0A
:10024000848D981306C00288F389E02D80818F7D0C
:1002500080830895EF92FF920F931F93CF93DF93C4
:10026000EC0181E0888F9B8D8C8D981305C0E88907
:10027000F989808185FD25C0F62E0B8D10E00F5F7A
:100280001F4F0F731127E02E8C8DE8120BC00FB695
:1002900007FCFACFE889F989808185FFF5CFCE0187
:1002A000B8DFF2CF8B8DFE01E80FF11DE35AFF4F4F
:1002B000F0829FB7F8940B8FEA89FB898081806276
:1002C00009C09FB7F894EE89FF896083E889F989AE
:1002D0008081827480839FBF81E090E0DF91CF9125
:1002E0001F910F91FF90EF900895CF93DF93EC0152
:1002F000888D8823C1F0EA89FB89808185FD05C04E
:10030000A889B9898C9186FD0EC00FB607FCF5CF80
:10031000808185FFF2CFA889B9898C9185FFEDCFC7
:10032000CE0177DFE8CFDF91CF91089580E090E0B4
:10033000892B19F065DF811163CE08953FB7F894DA
:100340008091950090919600A0919700B0919800AF
:1003500022B708B600FE05C02F3F19F00196A11D77
:10036000B11D3FBFBA2FA92F982F8827820F911D4B
:10037000A11DB11DBC01CD0143E0660F771F881F91
:10038000991F4A95D1F708958F929F92AF92BF928D
:10039000CF92DF92EF92FF92D1DF4B015C0188EEAA
:1003A000C82E83E0D82EE12CF12CC8DFDC01CB0174
:1003B00088199909AA09BB09883E9340A105B1058E
:1003C00058F021E0C21AD108E108F10888EE880E41
:1003D00083E0981EA11CB11CC114D104E104F104F6
:1003E00021F7FF90EF90DF90CF90BF90AF909F905C
:1003F0008F900895CF93DF93009771F0FC010190E7
:100400000020E9F73197AF01481B590BBC0189E97E
:1004100090E08ADEEC0102C0C0E0D0E042E050E0B3
:1004200062E770E089E990E07FDE8C0F9D1FDF912D
:10043000CF91089552D11F920F920FB60F921124AF
:100440002F933F934F935F936F937F938F939F93DC
:10045000AF93BF93EF93FF9389E990E0DADEFF91CA
:10046000EF91BF91AF919F918F917F916F915F912C
:100470004F913F912F910F900FBE0F901F901895A5
:100480001F920F920FB60F9211242F938F939F9369
:10049000EF93FF93E091A900F091AA008081E09191
:1004A000AF00F091B00082FD12C090818091B20047
:1004B0008F5F8F732091B300821751F0E091B200EB
:1004C000F0E0E756FF4F958F8093B20001C0808126
:1004D000FF91EF919F918F912F910F900FBE0F90F1
:1004E0001F9018951F920F920FB60F9211242F9301
:1004F0003F938F939F93AF93BF938091910090917F
:100500009200A0919300B09194003091900026E069
:10051000230F2D3720F40296A11DB11D05C029E837
:10052000230F0396A11DB11D20939000809391008D
:1005300090939200A0939300B093940080919500C3
:1005400090919600A0919700B09198000196A11DFE
:10055000B11D8093950090939600A0939700B0935F
:100560009800BF91AF919F918F913F912F910F90E4
:100570000FBE0F901F901895789483B7826083BF49
:1005800083B7816083BF89B7816089BF1EBC8EB588
:1005900082608EBD8EB581608EBD8FB581608FBD4E
:1005A00085B5846085BD85B5806485BD329A319AF4
:1005B0003098379A1AB8E091A900F091AA0082E029
:1005C0008083E091A500F091A6001082E091A70041
:1005D000F091A80087E680831092B100E091AD0011
:1005E000F091AE0086E88083E091AB00F091AC0022
:1005F000808180618083E091AB00F091AC008081CC
:1006000088608083E091AB00F091AC0080818068CD
:100610008083E091AB00F091AC0080818F7D80837E
:1006200085E790E0E7DEE4E5F0E02491E0E4F0E047
:100630008491882399F090E0880F991FFC01EA5D6E
:10064000FF4FA591B491FC01E05DFF4F859194911E
:100650008FB7F894EC91E22BEC938FBF81E032DD01
:1006600082E890E0C7DE90DE80E02CDD88E890E054
:10067000C1DE8ADE5BDEF2CFE9E9F0E013821282AE
:1006800088EE93E0A0E0B0E084839583A683B783EF
:1006900084E690E09183808380E490E0958784876E
:1006A00029E230E0378726872BE230E0318B208B40
:1006B0002AE230E0338B228B958B848B8CE290E0A6
:1006C000978B868B118E128E138E148E0895EE0FDB
:1006D000FF1F0590F491E02D099481E090E0F894DB
:0606E00000C0F894FFCFFA
:1006E600000000002A019400C3007501F400D20046
:1006F600E6000D0A0048656C6C6F20776F726C64BB
:1007060021004F6E2E2E2E004F66662E2E2E0000D6
:00000001FF
